{
  "contractName": "NFTMetaverse",
  "abi": [
    {
      "inputs": [
        {
          "internalType": "uint256",
          "name": "_cost",
          "type": "uint256"
        },
        {
          "internalType": "uint256",
          "name": "_maxSupply",
          "type": "uint256"
        }
      ],
      "stateMutability": "nonpayable",
      "type": "constructor"
    },
    {
      "anonymous": false,
      "inputs": [
        {
          "indexed": false,
          "internalType": "uint256",
          "name": "houseId",
          "type": "uint256"
        },
        {
          "indexed": false,
          "internalType": "address",
          "name": "owner",
          "type": "address"
        }
      ],
      "name": "HouseMinted",
      "type": "event"
    },
    {
      "inputs": [],
      "name": "cost",
      "outputs": [
        {
          "internalType": "uint256",
          "name": "",
          "type": "uint256"
        }
      ],
      "stateMutability": "view",
      "type": "function"
    },
    {
      "inputs": [
        {
          "internalType": "uint256",
          "name": "",
          "type": "uint256"
        }
      ],
      "name": "houseList",
      "outputs": [
        {
          "internalType": "address",
          "name": "owner",
          "type": "address"
        },
        {
          "internalType": "bool",
          "name": "exists",
          "type": "bool"
        }
      ],
      "stateMutability": "view",
      "type": "function"
    },
    {
      "inputs": [
        {
          "internalType": "uint256",
          "name": "",
          "type": "uint256"
        }
      ],
      "name": "houses",
      "outputs": [
        {
          "internalType": "address",
          "name": "owner",
          "type": "address"
        },
        {
          "internalType": "bool",
          "name": "exists",
          "type": "bool"
        }
      ],
      "stateMutability": "view",
      "type": "function"
    },
    {
      "inputs": [],
      "name": "maxSupply",
      "outputs": [
        {
          "internalType": "uint256",
          "name": "",
          "type": "uint256"
        }
      ],
      "stateMutability": "view",
      "type": "function"
    },
    {
      "inputs": [
        {
          "internalType": "address",
          "name": "",
          "type": "address"
        }
      ],
      "name": "totalSupply",
      "outputs": [
        {
          "internalType": "uint256",
          "name": "",
          "type": "uint256"
        }
      ],
      "stateMutability": "view",
      "type": "function"
    },
    {
      "inputs": [],
      "name": "mint",
      "outputs": [],
      "stateMutability": "payable",
      "type": "function"
    },
    {
      "inputs": [
        {
          "internalType": "uint256",
          "name": "houseId",
          "type": "uint256"
        }
      ],
      "name": "getHouseOwner",
      "outputs": [
        {
          "internalType": "address",
          "name": "",
          "type": "address"
        }
      ],
      "stateMutability": "view",
      "type": "function"
    }
  ],
  "bytecode": "0x608060405234801561001057600080fd5b50604051610b46380380610b4683398181016040528101906100329190610082565b816000819055508060018190555050506100c2565b600080fd5b6000819050919050565b61005f8161004c565b811461006a57600080fd5b50565b60008151905061007c81610056565b92915050565b6000806040838503121561009957610098610047565b5b60006100a78582860161006d565b92505060206100b88582860161006d565b9150509250929050565b610a75806100d16000396000f3fe6080604052600436106100705760003560e01c8063c376d0e01161004e578063c376d0e0146100e8578063d5abeb0114610126578063e4dc2aa414610151578063e7e95ada1461018e57610070565b80631249c58b1461007557806313faede61461007f578063aeda852f146100aa575b600080fd5b61007d6101cb565b005b34801561008b57600080fd5b5061009461046f565b6040516100a19190610638565b60405180910390f35b3480156100b657600080fd5b506100d160048036038101906100cc9190610684565b610475565b6040516100df92919061070d565b60405180910390f35b3480156100f457600080fd5b5061010f600480360381019061010a9190610684565b6104c6565b60405161011d92919061070d565b60405180910390f35b34801561013257600080fd5b5061013b610523565b6040516101489190610638565b60405180910390f35b34801561015d57600080fd5b5061017860048036038101906101739190610762565b610529565b6040516101859190610638565b60405180910390f35b34801561019a57600080fd5b506101b560048036038101906101b09190610684565b610541565b6040516101c2919061078f565b60405180910390f35b600054341015610210576040517f08c379a000000000000000000000000000000000000000000000000000000000815260040161020790610807565b60405180910390fd5b600154600260003373ffffffffffffffffffffffffffffffffffffffff1673ffffffffffffffffffffffffffffffffffffffff1681526020019081526020016000205410610293576040517f08c379a000000000000000000000000000000000000000000000000000000000815260040161028a90610873565b60405180910390fd5b60006003600060048054905081526020019081526020016000209050338160000160006101000a81548173ffffffffffffffffffffffffffffffffffffffff021916908373ffffffffffffffffffffffffffffffffffffffff16021790555060018160000160146101000a81548160ff021916908315150217905550600481908060018154018082558091505060019003906000526020600020016000909190919091506000820160009054906101000a900473ffffffffffffffffffffffffffffffffffffffff168160000160006101000a81548173ffffffffffffffffffffffffffffffffffffffff021916908373ffffffffffffffffffffffffffffffffffffffff1602179055506000820160149054906101000a900460ff168160000160146101000a81548160ff0219169083151502179055505050600260003373ffffffffffffffffffffffffffffffffffffffff1673ffffffffffffffffffffffffffffffffffffffff168152602001908152602001600020600081548092919061041d906108c2565b91905055507f948028eedeaf1a5d60e877183b8fe5ae2ef3281f803882b4f1fa39020a429ac16001600480549050610455919061090a565b3360405161046492919061093e565b60405180910390a150565b60005481565b60036020528060005260406000206000915090508060000160009054906101000a900473ffffffffffffffffffffffffffffffffffffffff16908060000160149054906101000a900460ff16905082565b600481815481106104d657600080fd5b906000526020600020016000915090508060000160009054906101000a900473ffffffffffffffffffffffffffffffffffffffff16908060000160149054906101000a900460ff16905082565b60015481565b60026020528060005260406000206000915090505481565b6000600480549050821061058a576040517f08c379a0000000000000000000000000000000000000000000000000000000008152600401610581906109b3565b60405180910390fd5b60006003600084815260200190815260200160002090508060000160149054906101000a900460ff166105f2576040517f08c379a00000000000000000000000000000000000000000000000000000000081526004016105e990610a1f565b60405180910390fd5b8060000160009054906101000a900473ffffffffffffffffffffffffffffffffffffffff16915050919050565b6000819050919050565b6106328161061f565b82525050565b600060208201905061064d6000830184610629565b92915050565b600080fd5b6106618161061f565b811461066c57600080fd5b50565b60008135905061067e81610658565b92915050565b60006020828403121561069a57610699610653565b5b60006106a88482850161066f565b91505092915050565b600073ffffffffffffffffffffffffffffffffffffffff82169050919050565b60006106dc826106b1565b9050919050565b6106ec816106d1565b82525050565b60008115159050919050565b610707816106f2565b82525050565b600060408201905061072260008301856106e3565b61072f60208301846106fe565b9392505050565b61073f816106d1565b811461074a57600080fd5b50565b60008135905061075c81610736565b92915050565b60006020828403121561077857610777610653565b5b60006107868482850161074d565b91505092915050565b60006020820190506107a460008301846106e3565b92915050565b600082825260208201905092915050565b7f496e73756666696369656e74207061796d656e74000000000000000000000000600082015250565b60006107f16014836107aa565b91506107fc826107bb565b602082019050919050565b60006020820190508181036000830152610820816107e4565b9050919050565b7f4d617820737570706c7920726561636865640000000000000000000000000000600082015250565b600061085d6012836107aa565b915061086882610827565b602082019050919050565b6000602082019050818103600083015261088c81610850565b9050919050565b7f4e487b7100000000000000000000000000000000000000000000000000000000600052601160045260246000fd5b60006108cd8261061f565b91507fffffffffffffffffffffffffffffffffffffffffffffffffffffffffffffffff82036108ff576108fe610893565b5b600182019050919050565b60006109158261061f565b91506109208361061f565b925082820390508181111561093857610937610893565b5b92915050565b60006040820190506109536000830185610629565b61096060208301846106e3565b9392505050565b7f496e76616c696420686f75736520494400000000000000000000000000000000600082015250565b600061099d6010836107aa565b91506109a882610967565b602082019050919050565b600060208201905081810360008301526109cc81610990565b9050919050565b7f486f75736520646f6573206e6f74206578697374000000000000000000000000600082015250565b6000610a096014836107aa565b9150610a14826109d3565b602082019050919050565b60006020820190508181036000830152610a38816109fc565b905091905056fea2646970667358221220cc0c1aae4c8786c576b7e481235c65c18f18b0a37b00a20daa8c63f5087ea4ae64736f6c63430008120033",
  "immutableReferences": {},
  "source": "// SPDX-License-Identifier: MIT\npragma solidity ^0.8.0;\n\ncontract NFTMetaverse {\n    uint256 public cost;\n    uint256 public maxSupply;\n    mapping(address => uint256) public totalSupply;\n    mapping(uint256 => House) public houses;\n\n    struct House {\n        address owner;\n        bool exists;\n    }\n\n    House[] public houseList;\n\n    event HouseMinted(uint256 houseId, address owner);\n\n    constructor(uint256 _cost, uint256 _maxSupply) {\n        cost = _cost;\n        maxSupply = _maxSupply;\n    }\n\n    function mint() public payable {\n        require(msg.value >= cost, \"Insufficient payment\");\n        require(totalSupply[msg.sender] < maxSupply, \"Max supply reached\");\n\n        House storage newHouse = houses[houseList.length];\n        newHouse.owner = msg.sender;\n        newHouse.exists = true;\n        houseList.push(newHouse);\n\n        totalSupply[msg.sender]++;\n\n        emit HouseMinted(houseList.length - 1, msg.sender);\n    }\n\n    function getHouseOwner(uint256 houseId) public view returns (address) {\n        require(houseId < houseList.length, \"Invalid house ID\");\n\n        House storage house = houses[houseId];\n        require(house.exists, \"House does not exist\");\n\n        return house.owner;\n    }\n}",
  "sourcePath": "/home/remi/Nextcloud/Documents/Dev/Epsi/metaverse-v2/truffle/contracts/NFTHousesMetaverse.sol",
  "compiler": {
    "name": "solc",
    "version": "0.8.18+commit.87f61d96.Emscripten.clang"
  },
  "schemaVersion": "3.4.14",
  "updatedAt": "2023-07-17T13:53:51.050Z",
  "devdoc": {
    "kind": "dev",
    "methods": {},
    "version": 1
  },
  "userdoc": {
    "kind": "user",
    "methods": {},
    "version": 1
  }
}